{
  "contractName": "Coin",
  "abi": [
    {
      "inputs": [
        {
          "internalType": "uint256",
          "name": "amount_",
          "type": "uint256"
        }
      ],
      "stateMutability": "nonpayable",
      "type": "constructor"
    },
    {
      "inputs": [
        {
          "internalType": "uint256",
          "name": "",
          "type": "uint256"
        }
      ],
      "name": "bettors",
      "outputs": [
        {
          "internalType": "address payable",
          "name": "",
          "type": "address"
        }
      ],
      "stateMutability": "view",
      "type": "function",
      "constant": true
    },
    {
      "inputs": [],
      "name": "bet",
      "outputs": [],
      "stateMutability": "payable",
      "type": "function",
      "payable": true
    },
    {
      "inputs": [],
      "name": "toss",
      "outputs": [],
      "stateMutability": "nonpayable",
      "type": "function"
    }
  ],
  "bytecode": "0x608060405234801561001057600080fd5b5060405161052638038061052683398181016040528101906100329190610054565b806000819055505061009e565b60008151905061004e81610087565b92915050565b60006020828403121561006657600080fd5b60006100748482850161003f565b91505092915050565b6000819050919050565b6100908161007d565b811461009b57600080fd5b50565b610479806100ad6000396000f3fe6080604052600436106100345760003560e01c806311610c25146100395780633482b644146100435780634771c62614610080575b600080fd5b610041610097565b005b34801561004f57600080fd5b5061006a600480360381019061006591906102b8565b61012e565b60405161007791906102f0565b60405180910390f35b34801561008c57600080fd5b5061009561016d565b005b60005434146100a557600080fd5b60028080549050106100b657600080fd5b6001436100c3919061030b565b6001819055506002339080600181540180825580915050600190039060005260206000200160009091909190916101000a81548173ffffffffffffffffffffffffffffffffffffffff021916908373ffffffffffffffffffffffffffffffffffffffff160217905550565b6002818154811061013e57600080fd5b906000526020600020016000915054906101000a900473ffffffffffffffffffffffffffffffffffffffff1681565b600280805490501461017e57600080fd5b436001541061018c57600080fd5b60006002434060001c61019f919061039d565b9050600281815481106101db577f4e487b7100000000000000000000000000000000000000000000000000000000600052603260045260246000fd5b9060005260206000200160009054906101000a900473ffffffffffffffffffffffffffffffffffffffff1673ffffffffffffffffffffffffffffffffffffffff166108fc479081150290604051600060405180830381858888f1935050505015801561024b573d6000803e3d6000fd5b506002600061025a9190610265565b600060018190555050565b50805460008255906000526020600020908101906102839190610286565b50565b5b8082111561029f576000816000905550600101610287565b5090565b6000813590506102b28161042c565b92915050565b6000602082840312156102ca57600080fd5b60006102d8848285016102a3565b91505092915050565b6102ea81610361565b82525050565b600060208201905061030560008301846102e1565b92915050565b600061031682610393565b915061032183610393565b9250827fffffffffffffffffffffffffffffffffffffffffffffffffffffffffffffffff03821115610356576103556103ce565b5b828201905092915050565b600061036c82610373565b9050919050565b600073ffffffffffffffffffffffffffffffffffffffff82169050919050565b6000819050919050565b60006103a882610393565b91506103b383610393565b9250826103c3576103c26103fd565b5b828206905092915050565b7f4e487b7100000000000000000000000000000000000000000000000000000000600052601160045260246000fd5b7f4e487b7100000000000000000000000000000000000000000000000000000000600052601260045260246000fd5b61043581610393565b811461044057600080fd5b5056fea264697066735822122073c7957679e7c199c6b7b3d84ded5e9ffb48d2cd6eb60a550be8d2ffa8e66d7664736f6c63430008000033",
  "immutableReferences": {},
  "source": "// Example following the Book: Build Your Own Blockchain A Practical Guide to Distributed Ledger Technology by Daniel Hellwig\r\n\r\n/*\r\n This contract allows to bettors to stake a pre-defined amount, then determins randomly based on whether the block's hash is even or odd\r\n During the execution of this contract, it will randomely determine the winner of the coin toss (using 50:50 odds) -- it runs\r\n a RNG implemented by EVM\r\n*/\r\n\r\npragma solidity ^0.8.0; // specify the version of Solidity compiler (follows semantic versioning: MAJOR.MINOR.PATCH)\r\n\r\ncontract Coin { // Declaring a contract names 'Coin'\r\n\r\n    uint256 amount; // State variable called 'amount' to store the fixed betting amount required to enter the game\r\n    uint256 blockNumber; // State variable that stores the block number after a bet is placed\r\n    address payable[] public bettors; // Array to store the addresses of the players who enter the bet\r\n\r\n    constructor(uint256 amount_) { // Constructor executes once the contract is deployed\r\n        amount = amount_; // It sets the initial value of 'amount' to the value provided at the time of deployment\r\n    }\r\n\r\n    // Function that receives Ether (as indicated by the 'payable' keyword)\r\n    // Function is called by the players to place their bets\r\n    function bet() payable public {\r\n        require(msg.value == amount); // Checks if the Ether sent through calling this function is equal to the 'amount'\r\n        require(bettors.length < 2); // Restricts that no more than two players can bet\r\n        blockNumber = block.number + 1; // Predicts/anticipate that the toss will happen in a future block (results cannot be known ahead of time)\r\n        bettors.push(payable(msg.sender));\r\n    }\r\n\r\n    // Public function that determines the winner; function is called after both bets are placed\r\n    function toss()public {\r\n        require(bettors.length == 2); // Two bets must be placed, otherwise the toss function cannot be executed\r\n        require(blockNumber < block.number); //\r\n        // Winner is determined by taking the hash of the current block (convert to unsigned int, and take modulus)\r\n        uint256 winner = uint256(blockhash(block.number)) % 2; // Result will be either 0 or 1 which will correspond to the indices of the 'bettors' array\r\n        // Transfers the Ether held by the contract (total bet amount) to the winning player\r\n        bettors[winner].transfer(address(this).balance); // 'address(this).balance' represents the current balance of the contract\r\n\r\n        // Reset state\r\n        delete bettors; //Clear the bettors array\r\n        blockNumber = 0; \r\n    }\r\n}",
  "sourcePath": "/mnt/c/Users/ASUS/Desktop/ZKP-SmartContract/contracts/coin-toss.sol",
  "compiler": {
    "name": "solc",
    "version": "0.8.0+commit.c7dfd78e.Emscripten.clang"
  },
  "schemaVersion": "3.4.16",
  "updatedAt": "2024-07-04T20:32:13.145Z",
  "networkType": "ethereum",
  "devdoc": {
    "kind": "dev",
    "methods": {},
    "version": 1
  },
  "userdoc": {
    "kind": "user",
    "methods": {},
    "version": 1
  }
}