{
  "contractName": "Groth16Verifier",
  "abi": [
    {
      "inputs": [
        {
          "internalType": "uint256[2]",
          "name": "_pA",
          "type": "uint256[2]"
        },
        {
          "internalType": "uint256[2][2]",
          "name": "_pB",
          "type": "uint256[2][2]"
        },
        {
          "internalType": "uint256[2]",
          "name": "_pC",
          "type": "uint256[2]"
        },
        {
          "internalType": "uint256[1]",
          "name": "_pubSignals",
          "type": "uint256[1]"
        }
      ],
      "name": "verifyProof",
      "outputs": [
        {
          "internalType": "bool",
          "name": "",
          "type": "bool"
        }
      ],
      "stateMutability": "view",
      "type": "function"
    }
  ],
  "bytecode": "0x608060405234801561001057600080fd5b506105f4806100206000396000f3fe608060405234801561001057600080fd5b506004361061002b5760003560e01c806343753b4d14610030575b600080fd5b61004a60048036038101906100459190610523565b610060565b6040516100579190610597565b60405180910390f35b600061048d565b7f30644e72e131a029b85045b68181585d2833e84879b9709143e1f593f00000018110610098576000805260206000f35b50565b600060405183815284602082015285604082015260408160608360076107d05a03fa9150816100ce576000805260206000f35b825160408201526020830151606082015260408360808360066107d05a03fa9150816100fe576000805260206000f35b505050505050565b600060808601600087017f2dadae9700c7d2ce84e75f9b8816572fab76436a8b4a44181aaeeb9372ffd63381527f29885eff49359aa54558802ec1f71ef563032c3c646d6aa21f7f6e402998109560208201526101a960008801357f248d31a675659d27030e195c41be68de9c9a4edcbba8b252814ea602b4a25fd07f0f5914e48520c9506eacdfedc61d0ed4b35e04029b3b3fc1cd6f87cf9ab294318461009b565b833582527f30644e72e131a029b85045b68181585d97816a916871ca8d3c208c16d87cfd4760208501357f30644e72e131a029b85045b68181585d97816a916871ca8d3c208c16d87cfd4703066020830152843560408301526020850135606083015260408501356080830152606085013560a08301527f0c2152852c9dcd93d47c08614b021a8e1442f25dfc7ffcf6f3ac992ac9d2ece360c08301527f061de756fe19db6dcce664194cfca19f4ba271f9086766cf963c3086c81a2ee060e08301527f21ecbd6cc5e3346c9acd3dfaf7a4551044e89f26a01a45cb217a63ff535964416101008301527f1685ce4ee721ff90f1a05d1e36627bff94dc33fe9b119eaf6285f8578f246fa76101208301527f057d6cd6795b2249640bfb05dacd54ee2b1e14d3505ea3ccd76f45076a8a345f6101408301527f07db9bb05280533fb4b06e057a35d6eb9a23d849979132566d7bdb00e0ebc313610160830152600088015161018083015260206000018801516101a08301527f198e9393920d483a7260bfb731fb5d25f1aa493335a9e71297e485b7aef312c26101c08301527f1800deef121f1e76426a00665e5c4479674322d4f75edadd46debd5cd992f6ed6101e08301527f090689d0585ff075ec9e99ad690c3395bc4b313370b38ef355acdadcd122975b6102008301527f12c85ea5db8c6deb4aab71808dcb408fe3d1e7690c43d37b4ce6cc0166fa7daa610220830152853561024083015260208601356102608301527f0a00ed07991d9cdce10c52e60b18c40561c555e1decbaa6d07ac0520a477e7e66102808301527f20a5570329a06670fd6f0334e1c3574d8e65245ddd4468733085cbece7c992616102a08301527f0188566538a26c29bfeb8d20e1a9d88c12053217dab261dbb9f9b44fc52166446102c08301527f2de72c87a3375a58ca6927727a5818f68578187914d231c25309a3b113fd7b076102e08301526020826103008460086107d05a03fa82518116935050505095945050505050565b60405161038081016040526104a56000840135610067565b6104b26020840135610067565b6104bf818486888a610106565b8060005260206000f35b6000819050826040600202820111156104e157600080fd5b92915050565b6000819050826020600102820111156104ff57600080fd5b92915050565b60008190508260206002028201111561051d57600080fd5b92915050565b600080600080610120858703121561053a57600080fd5b600061054887828801610505565b9450506040610559878288016104c9565b93505060c061056a87828801610505565b92505061010061057c878288016104e7565b91505092959194509250565b610591816105b2565b82525050565b60006020820190506105ac6000830184610588565b92915050565b6000811515905091905056fea264697066735822122025cce961d9088f84b8ab4980951ce9e8805a43f9a9d09ff502dd87d4f9ac0ec364736f6c63430008010033",
  "immutableReferences": {},
  "source": "// SPDX-License-Identifier: GPL-3.0\n/*\n    Copyright 2021 0KIMS association.\n\n    This file is generated with [snarkJS](https://github.com/iden3/snarkjs).\n\n    snarkJS is a free software: you can redistribute it and/or modify it\n    under the terms of the GNU General Public License as published by\n    the Free Software Foundation, either version 3 of the License, or\n    (at your option) any later version.\n\n    snarkJS is distributed in the hope that it will be useful, but WITHOUT\n    ANY WARRANTY; without even the implied warranty of MERCHANTABILITY\n    or FITNESS FOR A PARTICULAR PURPOSE. See the GNU General Public\n    License for more details.\n\n    You should have received a copy of the GNU General Public License\n    along with snarkJS. If not, see <https://www.gnu.org/licenses/>.\n*/\n\n//pragma solidity >=0.7.0 <0.9.0;\npragma solidity >=0.7.0 <0.9.0;\n\ncontract Groth16Verifier {\n    // Scalar field size\n    uint256 constant r    = 21888242871839275222246405745257275088548364400416034343698204186575808495617;\n    // Base field size\n    uint256 constant q   = 21888242871839275222246405745257275088696311157297823662689037894645226208583;\n\n    // Verification Key data\n    uint256 constant alphax  = 5486629669708884138156307677620048369488365637546682907556632397128643308771;\n    uint256 constant alphay  = 2766712305099652566944477713888527646744242874156118269378913945944843759328;\n    uint256 constant betax1  = 15344607273109261071761038902394758471248608843170581711876106421524391093313;\n    uint256 constant betax2  = 10187297215411790021001034251360905978803153439720080376360438623400341303207;\n    uint256 constant betay1  = 2483171296827947751340040892597949173436246959689266901332132640591744480351;\n    uint256 constant betay2  = 3554203971592094681093204023213910428271543102475900755337682849540229284627;\n    uint256 constant gammax1 = 11559732032986387107991004021392285783925812861821192530917403151452391805634;\n    uint256 constant gammax2 = 10857046999023057135944570762232829481370756359578518086990519993285655852781;\n    uint256 constant gammay1 = 4082367875863433681332203403145435568316851327593401208105741076214120093531;\n    uint256 constant gammay2 = 8495653923123431417604973247489272438418190587263600148770280649306958101930;\n    uint256 constant deltax1 = 4524764404561442519550621032674118952181989013211044468804115223638019925990;\n    uint256 constant deltax2 = 14766141457548757380462819935046919118956968077632924195826990728657972597345;\n    uint256 constant deltay1 = 693200328497869107283521395820347520630475501168878897529351581410640619076;\n    uint256 constant deltay2 = 20762527191831527518486369727535468216599572948274849834230536968670453529351;\n\n    \n    uint256 constant IC0x = 20660947703352138868720893954347074596318738225719148718682775989102462359091;\n    uint256 constant IC0y = 18785773639376629361608920128762717012619812743624626011836305644716260069525;\n    \n    uint256 constant IC1x = 6942086313329070280359858387456455582435359013819466996962459556664076047409;\n    uint256 constant IC1y = 16532730658416821305991082777991657207890790217194728885969302965470829371344;\n    \n \n    // Memory data\n    uint16 constant pVk = 0;\n    uint16 constant pPairing = 128;\n\n    uint16 constant pLastMem = 896;\n\n    function verifyProof(uint[2] calldata _pA, uint[2][2] calldata _pB, uint[2] calldata _pC, uint[1] calldata _pubSignals) public view returns (bool) {\n        assembly {\n            function checkField(v) {\n                if iszero(lt(v, r)) {\n                    mstore(0, 0)\n                    return(0, 0x20)\n                }\n            }\n            \n            // G1 function to multiply a G1 value(x,y) to value in an address\n            function g1_mulAccC(pR, x, y, s) {\n                let success\n                let mIn := mload(0x40)\n                mstore(mIn, x)\n                mstore(add(mIn, 32), y)\n                mstore(add(mIn, 64), s)\n\n                success := staticcall(sub(gas(), 2000), 7, mIn, 96, mIn, 64)\n\n                if iszero(success) {\n                    mstore(0, 0)\n                    return(0, 0x20)\n                }\n\n                mstore(add(mIn, 64), mload(pR))\n                mstore(add(mIn, 96), mload(add(pR, 32)))\n\n                success := staticcall(sub(gas(), 2000), 6, mIn, 128, pR, 64)\n\n                if iszero(success) {\n                    mstore(0, 0)\n                    return(0, 0x20)\n                }\n            }\n\n            function checkPairing(pA, pB, pC, pubSignals, pMem) -> isOk {\n                let _pPairing := add(pMem, pPairing)\n                let _pVk := add(pMem, pVk)\n\n                mstore(_pVk, IC0x)\n                mstore(add(_pVk, 32), IC0y)\n\n                // Compute the linear combination vk_x\n                \n                g1_mulAccC(_pVk, IC1x, IC1y, calldataload(add(pubSignals, 0)))\n                \n\n                // -A\n                mstore(_pPairing, calldataload(pA))\n                mstore(add(_pPairing, 32), mod(sub(q, calldataload(add(pA, 32))), q))\n\n                // B\n                mstore(add(_pPairing, 64), calldataload(pB))\n                mstore(add(_pPairing, 96), calldataload(add(pB, 32)))\n                mstore(add(_pPairing, 128), calldataload(add(pB, 64)))\n                mstore(add(_pPairing, 160), calldataload(add(pB, 96)))\n\n                // alpha1\n                mstore(add(_pPairing, 192), alphax)\n                mstore(add(_pPairing, 224), alphay)\n\n                // beta2\n                mstore(add(_pPairing, 256), betax1)\n                mstore(add(_pPairing, 288), betax2)\n                mstore(add(_pPairing, 320), betay1)\n                mstore(add(_pPairing, 352), betay2)\n\n                // vk_x\n                mstore(add(_pPairing, 384), mload(add(pMem, pVk)))\n                mstore(add(_pPairing, 416), mload(add(pMem, add(pVk, 32))))\n\n\n                // gamma2\n                mstore(add(_pPairing, 448), gammax1)\n                mstore(add(_pPairing, 480), gammax2)\n                mstore(add(_pPairing, 512), gammay1)\n                mstore(add(_pPairing, 544), gammay2)\n\n                // C\n                mstore(add(_pPairing, 576), calldataload(pC))\n                mstore(add(_pPairing, 608), calldataload(add(pC, 32)))\n\n                // delta2\n                mstore(add(_pPairing, 640), deltax1)\n                mstore(add(_pPairing, 672), deltax2)\n                mstore(add(_pPairing, 704), deltay1)\n                mstore(add(_pPairing, 736), deltay2)\n\n\n                let success := staticcall(sub(gas(), 2000), 8, _pPairing, 768, _pPairing, 0x20)\n\n                isOk := and(success, mload(_pPairing))\n            }\n\n            let pMem := mload(0x40)\n            mstore(0x40, add(pMem, pLastMem))\n\n            // Validate that all evaluations  F\n            \n            checkField(calldataload(add(_pubSignals, 0)))\n            \n            checkField(calldataload(add(_pubSignals, 32)))\n            \n\n            // Validate all evaluations\n            let isValid := checkPairing(_pA, _pB, _pC, _pubSignals, pMem)\n\n            mstore(0, isValid)\n             return(0, 0x20)\n         }\n     }\n }\n",
  "sourcePath": "/mnt/c/Users/ASUS/Desktop/ZKP-SmartContract/contracts/verifier.sol",
  "compiler": {
    "name": "solc",
    "version": "0.8.1+commit.df193b15.Emscripten.clang"
  },
  "schemaVersion": "3.4.16",
  "updatedAt": "2024-07-04T21:59:15.006Z",
  "devdoc": {
    "kind": "dev",
    "methods": {},
    "version": 1
  },
  "userdoc": {
    "kind": "user",
    "methods": {},
    "version": 1
  }
}