{
  "contractName": "SecretKeeper",
  "abi": [
    {
      "inputs": [
        {
          "internalType": "address",
          "name": "verifierAddress",
          "type": "address"
        }
      ],
      "stateMutability": "nonpayable",
      "type": "constructor"
    },
    {
      "inputs": [
        {
          "internalType": "string",
          "name": "secret",
          "type": "string"
        },
        {
          "internalType": "uint256[2]",
          "name": "a",
          "type": "uint256[2]"
        },
        {
          "internalType": "uint256[2][2]",
          "name": "b",
          "type": "uint256[2][2]"
        },
        {
          "internalType": "uint256[2]",
          "name": "c",
          "type": "uint256[2]"
        },
        {
          "internalType": "uint256[1]",
          "name": "input",
          "type": "uint256[1]"
        }
      ],
      "name": "verifyAndReward",
      "outputs": [],
      "stateMutability": "nonpayable",
      "type": "function"
    },
    {
      "inputs": [
        {
          "internalType": "string",
          "name": "secret",
          "type": "string"
        }
      ],
      "name": "setSecret",
      "outputs": [],
      "stateMutability": "nonpayable",
      "type": "function"
    },
    {
      "inputs": [],
      "name": "getSecret",
      "outputs": [
        {
          "internalType": "string",
          "name": "",
          "type": "string"
        }
      ],
      "stateMutability": "view",
      "type": "function"
    },
    {
      "inputs": [],
      "name": "owner",
      "outputs": [
        {
          "internalType": "address",
          "name": "",
          "type": "address"
        }
      ],
      "stateMutability": "view",
      "type": "function"
    }
  ],
  "bytecode": "0x608060405234801561001057600080fd5b50604051610c84380380610c84833981810160405281019061003291906100cf565b33600160006101000a81548173ffffffffffffffffffffffffffffffffffffffff021916908373ffffffffffffffffffffffffffffffffffffffff16021790555080600360006101000a81548173ffffffffffffffffffffffffffffffffffffffff021916908373ffffffffffffffffffffffffffffffffffffffff16021790555050610141565b6000815190506100c98161012a565b92915050565b6000602082840312156100e157600080fd5b60006100ef848285016100ba565b91505092915050565b60006101038261010a565b9050919050565b600073ffffffffffffffffffffffffffffffffffffffff82169050919050565b610133816100f8565b811461013e57600080fd5b50565b610b34806101506000396000f3fe608060405234801561001057600080fd5b506004361061004c5760003560e01c80630ddc3084146100515780635b9fdc301461006d5780637ed6c9261461008b5780638da5cb5b146100a7575b600080fd5b61006b60048036038101906100669190610679565b6100c5565b005b61007561028e565b60405161008291906108e2565b60405180910390f35b6100a560048036038101906100a09190610634565b6103b0565b005b6100af610485565b6040516100bc9190610880565b60405180910390f35b600160009054906101000a900473ffffffffffffffffffffffffffffffffffffffff1673ffffffffffffffffffffffffffffffffffffffff163373ffffffffffffffffffffffffffffffffffffffff1614610155576040517f08c379a000000000000000000000000000000000000000000000000000000000815260040161014c90610904565b60405180910390fd5b600360009054906101000a900473ffffffffffffffffffffffffffffffffffffffff1673ffffffffffffffffffffffffffffffffffffffff166343753b4d858585856040518563ffffffff1660e01b81526004016101b6949392919061089b565b60206040518083038186803b1580156101ce57600080fd5b505afa1580156101e2573d6000803e3d6000fd5b505050506040513d601f19601f82011682018060405250810190610206919061060b565b610245576040517f08c379a000000000000000000000000000000000000000000000000000000000815260040161023c90610924565b60405180910390fd5b8585600091906102569291906104af565b50858560405160200161026a929190610867565b60405160208183030381529060405280519060200120600281905550505050505050565b6060600160009054906101000a900473ffffffffffffffffffffffffffffffffffffffff1673ffffffffffffffffffffffffffffffffffffffff163373ffffffffffffffffffffffffffffffffffffffff1614610320576040517f08c379a000000000000000000000000000000000000000000000000000000000815260040161031790610904565b60405180910390fd5b6000805461032d90610a23565b80601f016020809104026020016040519081016040528092919081815260200182805461035990610a23565b80156103a65780601f1061037b576101008083540402835291602001916103a6565b820191906000526020600020905b81548152906001019060200180831161038957829003601f168201915b5050505050905090565b600160009054906101000a900473ffffffffffffffffffffffffffffffffffffffff1673ffffffffffffffffffffffffffffffffffffffff163373ffffffffffffffffffffffffffffffffffffffff1614610440576040517f08c379a000000000000000000000000000000000000000000000000000000000815260040161043790610904565b60405180910390fd5b8181600091906104519291906104af565b508181604051602001610465929190610867565b604051602081830303815290604052805190602001206002819055505050565b6000600160009054906101000a900473ffffffffffffffffffffffffffffffffffffffff16905090565b8280546104bb90610a23565b90600052602060002090601f0160209004810192826104dd5760008555610524565b82601f106104f657803560ff1916838001178555610524565b82800160010185558215610524579182015b82811115610523578235825591602001919060010190610508565b5b5090506105319190610535565b5090565b5b8082111561054e576000816000905550600101610536565b5090565b60008190508260406002028201111561056a57600080fd5b92915050565b60008190508260206001028201111561058857600080fd5b92915050565b6000819050826020600202820111156105a657600080fd5b92915050565b6000815190506105bb81610ae7565b92915050565b60008083601f8401126105d357600080fd5b8235905067ffffffffffffffff8111156105ec57600080fd5b60208301915083600182028301111561060457600080fd5b9250929050565b60006020828403121561061d57600080fd5b600061062b848285016105ac565b91505092915050565b6000806020838503121561064757600080fd5b600083013567ffffffffffffffff81111561066157600080fd5b61066d858286016105c1565b92509250509250929050565b600080600080600080610140878903121561069357600080fd5b600087013567ffffffffffffffff8111156106ad57600080fd5b6106b989828a016105c1565b965096505060206106cc89828a0161058e565b94505060606106dd89828a01610552565b93505060e06106ee89828a0161058e565b92505061012061070089828a01610570565b9150509295509295509295565b600061071983836107a3565b60408301905092915050565b61072e816109a3565b82525050565b61073d8161094e565b6107478184610971565b925061075282610944565b8060005b8381101561078b576107688284610998565b610772878261070d565b965061077d83610964565b925050600181019050610756565b505050505050565b61079f602083836109e1565b5050565b6107af604083836109e1565b5050565b6107bf604083836109e1565b5050565b60006107cf838561098d565b93506107dc8385846109e1565b82840190509392505050565b60006107f382610959565b6107fd818561097c565b935061080d8185602086016109f0565b61081681610a84565b840191505092915050565b600061082e60208361097c565b915061083982610a95565b602082019050919050565b6000610851600d8361097c565b915061085c82610abe565b602082019050919050565b60006108748284866107c3565b91508190509392505050565b60006020820190506108956000830184610725565b92915050565b6000610120820190506108b160008301876107b3565b6108be6040830186610734565b6108cb60c08301856107b3565b6108d9610100830184610793565b95945050505050565b600060208201905081810360008301526108fc81846107e8565b905092915050565b6000602082019050818103600083015261091d81610821565b9050919050565b6000602082019050818103600083015261093d81610844565b9050919050565b6000819050919050565b600060029050919050565b600081519050919050565b6000604082019050919050565b600081905092915050565b600082825260208201905092915050565b600081905092915050565b600082905092915050565b60006109ae826109c1565b9050919050565b60008115159050919050565b600073ffffffffffffffffffffffffffffffffffffffff82169050919050565b82818337600083830152505050565b60005b83811015610a0e5780820151818401526020810190506109f3565b83811115610a1d576000848401525b50505050565b60006002820490506001821680610a3b57607f821691505b60208210811415610a4f57610a4e610a55565b5b50919050565b7f4e487b7100000000000000000000000000000000000000000000000000000000600052602260045260246000fd5b6000601f19601f8301169050919050565b7f4f776e61626c653a2063616c6c6572206973206e6f7420746865206f776e6572600082015250565b7f496e76616c69642050726f6f6600000000000000000000000000000000000000600082015250565b610af0816109b5565b8114610afb57600080fd5b5056fea2646970667358221220115be670b34663b5ef3b5a820aca24a200e15a58350f611c74ab63dd112e011764736f6c63430008010033",
  "immutableReferences": {},
  "source": "pragma solidity ^0.8.0;\r\n\r\nimport \"./verifier.sol\";\r\n\r\ncontract SecretKeeper { \r\n    string private _secret; \r\n    address private _owner; \r\n    bytes32 private _secretHash; \r\n    Groth16Verifier private verifier; \r\n\r\n    constructor(address verifierAddress) {\r\n        _owner = msg.sender; \r\n        verifier = Groth16Verifier(verifierAddress); \r\n    }\r\n \r\n    modifier onlyOwner() {\r\n        require(msg.sender == _owner, \r\n        \"Ownable: caller is not the owner\");\r\n        _; \r\n    }\r\n\r\n    function verifyAndReward(\r\n        string calldata secret,\r\n        uint256[2] calldata a, \r\n        uint256[2][2] calldata b, \r\n        uint256[2] calldata c,\r\n        uint256[1] calldata input\r\n    ) external onlyOwner {\r\n\r\n        require(verifier.verifyProof(a, b, c, input), \"Invalid Proof\"); \r\n        _secret = secret;\r\n        _secretHash = keccak256(abi.encodePacked(secret));\r\n\r\n    }\r\n\r\n    function setSecret(string calldata secret) external onlyOwner {\r\n        _secret = secret;\r\n        _secretHash = keccak256(abi.encodePacked(secret));\r\n    }\r\n\r\n    function getSecret() external view onlyOwner returns (string memory) {\r\n        return _secret;\r\n    }\r\n\r\n    function owner() public view returns (address) { \r\n        return _owner;\r\n    }\r\n}\r\n\r\n\r\n\r\n",
  "sourcePath": "/mnt/c/Users/ASUS/Desktop/ZKP-SmartContract/contracts/simple-secret.sol",
  "compiler": {
    "name": "solc",
    "version": "0.8.1+commit.df193b15.Emscripten.clang"
  },
  "schemaVersion": "3.4.16",
  "updatedAt": "2024-07-04T21:59:14.987Z",
  "devdoc": {
    "kind": "dev",
    "methods": {},
    "version": 1
  },
  "userdoc": {
    "kind": "user",
    "methods": {},
    "version": 1
  }
}