{
  "contractName": "VerifyAndExchangeHTLC",
  "abi": [
    {
      "inputs": [
        {
          "internalType": "address",
          "name": "verifierAddress",
          "type": "address"
        }
      ],
      "stateMutability": "nonpayable",
      "type": "constructor"
    },
    {
      "anonymous": false,
      "inputs": [
        {
          "indexed": true,
          "internalType": "bytes32",
          "name": "contractId",
          "type": "bytes32"
        },
        {
          "indexed": true,
          "internalType": "address",
          "name": "sender",
          "type": "address"
        },
        {
          "indexed": true,
          "internalType": "address",
          "name": "receiver",
          "type": "address"
        },
        {
          "indexed": false,
          "internalType": "uint256",
          "name": "amount",
          "type": "uint256"
        },
        {
          "indexed": false,
          "internalType": "uint256",
          "name": "timeLock",
          "type": "uint256"
        }
      ],
      "name": "HTLCCreated",
      "type": "event"
    },
    {
      "anonymous": false,
      "inputs": [
        {
          "indexed": true,
          "internalType": "bytes32",
          "name": "contractId",
          "type": "bytes32"
        },
        {
          "indexed": true,
          "internalType": "address",
          "name": "sender",
          "type": "address"
        },
        {
          "indexed": false,
          "internalType": "uint256",
          "name": "amount",
          "type": "uint256"
        }
      ],
      "name": "HTLCRefunded",
      "type": "event"
    },
    {
      "anonymous": false,
      "inputs": [
        {
          "indexed": true,
          "internalType": "bytes32",
          "name": "contractId",
          "type": "bytes32"
        },
        {
          "indexed": true,
          "internalType": "address",
          "name": "receiver",
          "type": "address"
        },
        {
          "indexed": false,
          "internalType": "uint256",
          "name": "amount",
          "type": "uint256"
        }
      ],
      "name": "HTLCWithdrawn",
      "type": "event"
    },
    {
      "inputs": [
        {
          "internalType": "bytes32",
          "name": "",
          "type": "bytes32"
        }
      ],
      "name": "contracts",
      "outputs": [
        {
          "internalType": "uint256",
          "name": "amount",
          "type": "uint256"
        },
        {
          "internalType": "uint256",
          "name": "timeLock",
          "type": "uint256"
        },
        {
          "internalType": "bool",
          "name": "withdrawn",
          "type": "bool"
        },
        {
          "internalType": "bool",
          "name": "refunded",
          "type": "bool"
        },
        {
          "internalType": "address payable",
          "name": "sender",
          "type": "address"
        },
        {
          "internalType": "address payable",
          "name": "receiver",
          "type": "address"
        },
        {
          "internalType": "bytes32",
          "name": "hashLock",
          "type": "bytes32"
        }
      ],
      "stateMutability": "view",
      "type": "function",
      "constant": true
    },
    {
      "inputs": [
        {
          "internalType": "address payable",
          "name": "receiver",
          "type": "address"
        },
        {
          "internalType": "uint256",
          "name": "timelock",
          "type": "uint256"
        },
        {
          "internalType": "bytes32",
          "name": "hashLock",
          "type": "bytes32"
        }
      ],
      "name": "createHTLC",
      "outputs": [
        {
          "internalType": "bytes32",
          "name": "contractId",
          "type": "bytes32"
        }
      ],
      "stateMutability": "payable",
      "type": "function",
      "payable": true
    },
    {
      "inputs": [
        {
          "internalType": "bytes32",
          "name": "contractId",
          "type": "bytes32"
        },
        {
          "internalType": "uint256[2]",
          "name": "a",
          "type": "uint256[2]"
        },
        {
          "internalType": "uint256[2][2]",
          "name": "b",
          "type": "uint256[2][2]"
        },
        {
          "internalType": "uint256[2]",
          "name": "c",
          "type": "uint256[2]"
        },
        {
          "internalType": "uint256[5]",
          "name": "input",
          "type": "uint256[5]"
        },
        {
          "internalType": "string",
          "name": "preImage",
          "type": "string"
        }
      ],
      "name": "withdraw",
      "outputs": [],
      "stateMutability": "nonpayable",
      "type": "function"
    },
    {
      "inputs": [
        {
          "internalType": "bytes32",
          "name": "contractId",
          "type": "bytes32"
        }
      ],
      "name": "refund",
      "outputs": [],
      "stateMutability": "nonpayable",
      "type": "function"
    },
    {
      "inputs": [
        {
          "internalType": "bytes32",
          "name": "contractId",
          "type": "bytes32"
        }
      ],
      "name": "getContract",
      "outputs": [
        {
          "internalType": "address",
          "name": "sender",
          "type": "address"
        },
        {
          "internalType": "address",
          "name": "receiver",
          "type": "address"
        },
        {
          "internalType": "uint256",
          "name": "amount",
          "type": "uint256"
        },
        {
          "internalType": "uint256",
          "name": "timelock",
          "type": "uint256"
        },
        {
          "internalType": "bool",
          "name": "withdrawn",
          "type": "bool"
        },
        {
          "internalType": "bool",
          "name": "refunded",
          "type": "bool"
        },
        {
          "internalType": "bytes32",
          "name": "preImage",
          "type": "bytes32"
        }
      ],
      "stateMutability": "view",
      "type": "function",
      "constant": true
    },
    {
      "inputs": [],
      "name": "getContractBalance",
      "outputs": [
        {
          "internalType": "uint256",
          "name": "",
          "type": "uint256"
        }
      ],
      "stateMutability": "view",
      "type": "function",
      "constant": true
    }
  ],
  "bytecode": "0x60c06040523480156200001157600080fd5b5060405162002014380380620020148339818101604052810190620000379190620000c3565b8073ffffffffffffffffffffffffffffffffffffffff1660808173ffffffffffffffffffffffffffffffffffffffff1660601b815250503373ffffffffffffffffffffffffffffffffffffffff1660a08173ffffffffffffffffffffffffffffffffffffffff1660601b81525050506200013d565b600081519050620000bd8162000123565b92915050565b600060208284031215620000d657600080fd5b6000620000e684828501620000ac565b91505092915050565b6000620000fc8262000103565b9050919050565b600073ffffffffffffffffffffffffffffffffffffffff82169050919050565b6200012e81620000ef565b81146200013a57600080fd5b50565b60805160601c60a05160601c611eae620001666000396000505060006106510152611eae6000f3fe6080604052600436106100555760003560e01c8063500206c71461005a5780636f9fb98a146100835780637249fbb6146100ae57806393de782e146100d7578063e16c7d9814610107578063ec56a3731461014a575b600080fd5b34801561006657600080fd5b50610081600480360381019061007c9190611193565b61018d565b005b34801561008f57600080fd5b506100986108f6565b6040516100a59190611908565b60405180910390f35b3480156100ba57600080fd5b506100d560048036038101906100d0919061116a565b6108fe565b005b6100f160048036038101906100ec91906110f2565b610ba5565b6040516100fe9190611722565b60405180910390f35b34801561011357600080fd5b5061012e6004803603810190610129919061116a565b610e89565b60405161014197969594939291906116b3565b60405180910390f35b34801561015657600080fd5b50610171600480360381019061016c919061116a565b610f40565b604051610184979695949392919061194c565b60405180910390f35b600060405180606001604052806040518060400160405280896000600281106101df577f4e487b7100000000000000000000000000000000000000000000000000000000600052603260045260246000fd5b6020020135815260200189600160028110610223577f4e487b7100000000000000000000000000000000000000000000000000000000600052603260045260246000fd5b60200201358152508152602001604051806040016040528060405180604001604052808a600060028110610280577f4e487b7100000000000000000000000000000000000000000000000000000000600052603260045260246000fd5b604002016000600281106102bd577f4e487b7100000000000000000000000000000000000000000000000000000000600052603260045260246000fd5b602002013581526020018a600060028110610301577f4e487b7100000000000000000000000000000000000000000000000000000000600052603260045260246000fd5b6040020160016002811061033e577f4e487b7100000000000000000000000000000000000000000000000000000000600052603260045260246000fd5b6020020135815250815260200160405180604001604052808a600160028110610390577f4e487b7100000000000000000000000000000000000000000000000000000000600052603260045260246000fd5b604002016000600281106103cd577f4e487b7100000000000000000000000000000000000000000000000000000000600052603260045260246000fd5b602002013581526020018a600160028110610411577f4e487b7100000000000000000000000000000000000000000000000000000000600052603260045260246000fd5b6040020160016002811061044e577f4e487b7100000000000000000000000000000000000000000000000000000000600052603260045260246000fd5b602002013581525081525081526020016040518060400160405280876000600281106104a3577f4e487b7100000000000000000000000000000000000000000000000000000000600052603260045260246000fd5b60200201358152602001876001600281106104e7577f4e487b7100000000000000000000000000000000000000000000000000000000600052603260045260246000fd5b60200201358152508152509050600080600089815260200190815260200160002090503373ffffffffffffffffffffffffffffffffffffffff168160030160009054906101000a900473ffffffffffffffffffffffffffffffffffffffff1673ffffffffffffffffffffffffffffffffffffffff161461059c576040517f08c379a00000000000000000000000000000000000000000000000000000000081526004016105939061173d565b60405180910390fd5b428160010154116105e2576040517f08c379a00000000000000000000000000000000000000000000000000000000081526004016105d99061177d565b60405180910390fd5b8060020160009054906101000a900460ff1615801561061057508060020160019054906101000a900460ff16155b61064f576040517f08c379a0000000000000000000000000000000000000000000000000000000008152600401610646906117bd565b60405180910390fd5b7f000000000000000000000000000000000000000000000000000000000000000073ffffffffffffffffffffffffffffffffffffffff1663bcb9988683866040518363ffffffff1660e01b81526004016106aa9291906118dd565b60206040518083038186803b1580156106c257600080fd5b505afa1580156106d6573d6000803e3d6000fd5b505050506040513d601f19601f820116820180604052508101906106fa9190611141565b610739576040517f08c379a00000000000000000000000000000000000000000000000000000000081526004016107309061187d565b60405180910390fd5b80600401548360405160200161074f9190611687565b60405160208183030381529060405280519060200120146107a5576040517f08c379a000000000000000000000000000000000000000000000000000000000815260040161079c9061185d565b60405180910390fd5b60018160020160006101000a81548160ff02191690831515021790555060008160000154905060008260030160009054906101000a900473ffffffffffffffffffffffffffffffffffffffff1673ffffffffffffffffffffffffffffffffffffffff16826040516108159061169e565b60006040518083038185875af1925050503d8060008114610852576040519150601f19603f3d011682016040523d82523d6000602084013e610857565b606091505b505090508061089b576040517f08c379a0000000000000000000000000000000000000000000000000000000008152600401610892906117fd565b60405180910390fd5b3373ffffffffffffffffffffffffffffffffffffffff168a7fb1a5e0215b1da1438462d5699040b0f53694d7cf6acedd6cd8ea4e13cddd4856846040516108e29190611908565b60405180910390a350505050505050505050565b600047905090565b600080600083815260200190815260200160002090503373ffffffffffffffffffffffffffffffffffffffff168160020160029054906101000a900473ffffffffffffffffffffffffffffffffffffffff1673ffffffffffffffffffffffffffffffffffffffff16146109a6576040517f08c379a000000000000000000000000000000000000000000000000000000000815260040161099d906118bd565b60405180910390fd5b42816001015411156109ed576040517f08c379a00000000000000000000000000000000000000000000000000000000081526004016109e49061183d565b60405180910390fd5b8060020160009054906101000a900460ff16158015610a1b57508060020160019054906101000a900460ff16155b610a5a576040517f08c379a0000000000000000000000000000000000000000000000000000000008152600401610a519061181d565b60405180910390fd5b60018160020160016101000a81548160ff02191690831515021790555060008160000154905060008260020160029054906101000a900473ffffffffffffffffffffffffffffffffffffffff1673ffffffffffffffffffffffffffffffffffffffff1682604051610aca9061169e565b60006040518083038185875af1925050503d8060008114610b07576040519150601f19603f3d011682016040523d82523d6000602084013e610b0c565b606091505b5050905080610b50576040517f08c379a0000000000000000000000000000000000000000000000000000000008152600401610b47906117dd565b60405180910390fd5b3373ffffffffffffffffffffffffffffffffffffffff16847f2999666d219fbb0beffe6215fdd5d2c8757a569821ecae88028e57f41a0c9ae584604051610b979190611908565b60405180910390a350505050565b6000803411610be9576040517f08c379a0000000000000000000000000000000000000000000000000000000008152600401610be09061179d565b60405180910390fd5b428311610c2b576040517f08c379a0000000000000000000000000000000000000000000000000000000008152600401610c229061175d565b60405180910390fd5b3384348486604051602001610c44959493929190611628565b60405160208183030381529060405280519060200120905060008060008381526020019081526020016000206000015414610cb4576040517f08c379a0000000000000000000000000000000000000000000000000000000008152600401610cab9061189d565b60405180910390fd5b6040518060e001604052803481526020018481526020016000151581526020016000151581526020013373ffffffffffffffffffffffffffffffffffffffff1681526020018573ffffffffffffffffffffffffffffffffffffffff16815260200183815250600080838152602001908152602001600020600082015181600001556020820151816001015560408201518160020160006101000a81548160ff02191690831515021790555060608201518160020160016101000a81548160ff02191690831515021790555060808201518160020160026101000a81548173ffffffffffffffffffffffffffffffffffffffff021916908373ffffffffffffffffffffffffffffffffffffffff16021790555060a08201518160030160006101000a81548173ffffffffffffffffffffffffffffffffffffffff021916908373ffffffffffffffffffffffffffffffffffffffff16021790555060c082015181600401559050508373ffffffffffffffffffffffffffffffffffffffff163373ffffffffffffffffffffffffffffffffffffffff16827fd7306a45991ee0725628f72dca1e8300fb1b2ddde6286588979392ac1100fb603487604051610e7a929190611923565b60405180910390a49392505050565b6000806000806000806000806000808a815260200190815260200160002090508060020160029054906101000a900473ffffffffffffffffffffffffffffffffffffffff168160030160009054906101000a900473ffffffffffffffffffffffffffffffffffffffff16826000015483600101548460020160009054906101000a900460ff168560020160019054906101000a900460ff168660040154975097509750975097509750975050919395979092949650565b60006020528060005260406000206000915090508060000154908060010154908060020160009054906101000a900460ff16908060020160019054906101000a900460ff16908060020160029054906101000a900473ffffffffffffffffffffffffffffffffffffffff16908060030160009054906101000a900473ffffffffffffffffffffffffffffffffffffffff16908060040154905087565b6000610fef610fea846119e0565b6119bb565b90508281526020810184848401111561100757600080fd5b611012848285611ad4565b509392505050565b60008135905061102981611e1c565b92915050565b60008190508260406002028201111561104757600080fd5b92915050565b60008190508260206002028201111561106557600080fd5b92915050565b60008190508260206005028201111561108357600080fd5b92915050565b60008151905061109881611e33565b92915050565b6000813590506110ad81611e4a565b92915050565b600082601f8301126110c457600080fd5b81356110d4848260208601610fdc565b91505092915050565b6000813590506110ec81611e61565b92915050565b60008060006060848603121561110757600080fd5b60006111158682870161101a565b9350506020611126868287016110dd565b92505060406111378682870161109e565b9150509250925092565b60006020828403121561115357600080fd5b600061116184828501611089565b91505092915050565b60006020828403121561117c57600080fd5b600061118a8482850161109e565b91505092915050565b6000806000806000806101e087890312156111ad57600080fd5b60006111bb89828a0161109e565b96505060206111cc89828a0161104d565b95505060606111dd89828a0161102f565b94505060e06111ee89828a0161104d565b93505061012061120089828a0161106b565b9250506101c087013567ffffffffffffffff81111561121e57600080fd5b61122a89828a016110b3565b9150509295509295509295565b600061124383836115f3565b60208301905092915050565b61125881611a82565b82525050565b61126f61126a82611a82565b611b59565b82525050565b61127e81611a70565b82525050565b61129561129082611a70565b611b47565b82525050565b6112a481611a1b565b6112ae8184611a3e565b92506112b982611a11565b8060005b838110156112ea5781516112d18782611237565b96506112dc83611a31565b9250506001810190506112bd565b505050505050565b6112fe60a08383611ad4565b5050565b61130b81611a94565b82525050565b61131a81611aa0565b82525050565b61133161132c82611aa0565b611b6b565b82525050565b600061134282611a26565b61134c8185611a65565b935061135c818560208601611ae3565b80840191505092915050565b6000611375601e83611a54565b915061138082611bde565b602082019050919050565b6000611398601e83611a54565b91506113a382611c07565b602082019050919050565b60006113bb601183611a54565b91506113c682611c30565b602082019050919050565b60006113de601783611a54565b91506113e982611c59565b602082019050919050565b6000611401601183611a54565b915061140c82611c82565b602082019050919050565b6000611424601483611a54565b915061142f82611cab565b602082019050919050565b6000611447601283611a54565b915061145282611cd4565b602082019050919050565b600061146a601083611a54565b915061147582611cfd565b602082019050919050565b600061148d601983611a54565b915061149882611d26565b602082019050919050565b60006114b0600083611a49565b91506114bb82611d4f565b600082019050919050565b60006114d3601183611a54565b91506114de82611d52565b602082019050919050565b60006114f6600d83611a54565b915061150182611d7b565b602082019050919050565b6000611519602483611a54565b915061152482611da4565b604082019050919050565b600061153c601a83611a54565b915061154782611df3565b602082019050919050565b60408201600082015161156860008501826115f3565b50602082015161157b60208501826115f3565b50505050565b608082016000820151611597600085018261129b565b5060208201516115aa604085018261129b565b50505050565b610100820160008201516115c76000850182611552565b5060208201516115da6040850182611581565b5060408201516115ed60c0850182611552565b50505050565b6115fc81611aca565b82525050565b61160b81611aca565b82525050565b61162261161d82611aca565b611b87565b82525050565b60006116348288611284565b601482019150611644828761125e565b6014820191506116548286611611565b6020820191506116648285611320565b6020820191506116748284611611565b6020820191508190509695505050505050565b60006116938284611337565b915081905092915050565b60006116a9826114a3565b9150819050919050565b600060e0820190506116c8600083018a611275565b6116d56020830189611275565b6116e26040830188611602565b6116ef6060830187611602565b6116fc6080830186611302565b61170960a0830185611302565b61171660c0830184611311565b98975050505050505050565b60006020820190506117376000830184611311565b92915050565b6000602082019050818103600083015261175681611368565b9050919050565b600060208201905081810360008301526117768161138b565b9050919050565b60006020820190508181036000830152611796816113ae565b9050919050565b600060208201905081810360008301526117b6816113d1565b9050919050565b600060208201905081810360008301526117d6816113f4565b9050919050565b600060208201905081810360008301526117f681611417565b9050919050565b600060208201905081810360008301526118168161143a565b9050919050565b600060208201905081810360008301526118368161145d565b9050919050565b6000602082019050818103600083015261185681611480565b9050919050565b60006020820190508181036000830152611876816114c6565b9050919050565b60006020820190508181036000830152611896816114e9565b9050919050565b600060208201905081810360008301526118b68161150c565b9050919050565b600060208201905081810360008301526118d68161152f565b9050919050565b60006101a0820190506118f360008301856115b0565b6119016101008301846112f2565b9392505050565b600060208201905061191d6000830184611602565b92915050565b60006040820190506119386000830185611602565b6119456020830184611602565b9392505050565b600060e082019050611961600083018a611602565b61196e6020830189611602565b61197b6040830188611302565b6119886060830187611302565b611995608083018661124f565b6119a260a083018561124f565b6119af60c0830184611311565b98975050505050505050565b60006119c56119d6565b90506119d18282611b16565b919050565b6000604051905090565b600067ffffffffffffffff8211156119fb576119fa611b91565b5b611a0482611bc0565b9050602081019050919050565b6000819050919050565b600060029050919050565b600081519050919050565b6000602082019050919050565b600081905092915050565b600081905092915050565b600082825260208201905092915050565b600081905092915050565b6000611a7b82611aaa565b9050919050565b6000611a8d82611aaa565b9050919050565b60008115159050919050565b6000819050919050565b600073ffffffffffffffffffffffffffffffffffffffff82169050919050565b6000819050919050565b82818337600083830152505050565b60005b83811015611b01578082015181840152602081019050611ae6565b83811115611b10576000848401525b50505050565b611b1f82611bc0565b810181811067ffffffffffffffff82111715611b3e57611b3d611b91565b5b80604052505050565b6000611b5282611b75565b9050919050565b6000611b6482611b75565b9050919050565b6000819050919050565b6000611b8082611bd1565b9050919050565b6000819050919050565b7f4e487b7100000000000000000000000000000000000000000000000000000000600052604160045260246000fd5b6000601f19601f8301169050919050565b60008160601b9050919050565b7f4f6e6c79207468652072656365697665722063616e2077697468647261770000600082015250565b7f54696d656c6f636b206d75737420626520696e20746865206675747572650000600082015250565b7f54696d65206c6f636b2065787069726564000000000000000000000000000000600082015250565b7f43616e6e6f74206c6f636b206f6e207a65726f20455448000000000000000000600082015250565b7f416c72656164792077697468647261776e000000000000000000000000000000600082015250565b7f4661696c656420746f20726566756e6420455448000000000000000000000000600082015250565b7f4661696c656420746f2073656e64204554480000000000000000000000000000600082015250565b7f416c726561647920726566756e64656400000000000000000000000000000000600082015250565b7f54696d65206c6f636b20686173206e6f74206578706972656400000000000000600082015250565b50565b7f496e76616c6964207072652d696d616765000000000000000000000000000000600082015250565b7f496e76616c69642050726f6f6600000000000000000000000000000000000000600082015250565b7f436f6e74726163742077697468207468697320494420616c726561647920657860008201527f6973747300000000000000000000000000000000000000000000000000000000602082015250565b7f4f6e6c79207468652073656e6465722063616e20726566756e64000000000000600082015250565b611e2581611a82565b8114611e3057600080fd5b50565b611e3c81611a94565b8114611e4757600080fd5b50565b611e5381611aa0565b8114611e5e57600080fd5b50565b611e6a81611aca565b8114611e7557600080fd5b5056fea2646970667358221220dba3e465060cf4ed3df20b3ca6b1c905cecc6edd6598e54a76be0fef241a5a0564736f6c63430008010033",
  "immutableReferences": {
    "5": [
      {
        "length": 32,
        "start": 1617
      }
    ]
  },
  "source": "// SPDX-License-Identifier: MIT\r\n// Source: https://github.com/chatch/hashed-timelock-contract-ethereum/blob/master/contracts/HashedTimelock.sol\r\npragma solidity ^0.8.0;\r\n\r\nimport \"./verifier.sol\"; // Importing ZoKrates solidity verifier\r\n\r\n// Contract definition\r\ncontract VerifyAndExchangeHTLC {\r\n\r\n    // Variable of type 'Verifier' which comes from the ZoKrates verifer smart contract\r\n    Verifier private immutable _verifier;\r\n    address private immutable _owner;\r\n\r\n    // Hash value computed in ZoKrates using Poseidon's hash\r\n    // bytes32 public constant HASH_VALUE = bytes32(13432747890427498375149439507741491713221934456011451209707589675527438237343);\r\n    // bytes32 public constant HASH_VALUE = 0x1db2aa76f5442e63d3691e410bfed3144eb2e0b45fcfe41a65eb83c53e7e7e9f; // The hash from the inputs part of ZoKrates proof file\r\n    struct LockContract {\r\n        uint256 amount;\r\n        uint256 timeLock;\r\n        bool withdrawn;\r\n        bool refunded;\r\n        address payable sender;\r\n        address payable receiver;\r\n        bytes32 hashLock;\r\n    }\r\n\r\n    mapping(bytes32 => LockContract) public contracts;\r\n\r\n    // Events that are logged on the Ethereum blockchain\r\n    event HTLCCreated(bytes32 indexed contractId, address indexed sender, address indexed receiver, uint256 amount, uint256 timeLock);\r\n    event HTLCWithdrawn(bytes32 indexed contractId, address indexed receiver, uint256 amount);\r\n    event HTLCRefunded(bytes32 indexed contractId, address indexed sender, uint256 amount);\r\n\r\n    constructor(address verifierAddress) {\r\n        _verifier = Verifier(verifierAddress);\r\n        _owner = msg.sender; // Set the address of the user who deployed this contract as the owenr of this contract\r\n    }\r\n    // Lock ETH in the contract (using the predefined Poseidon's hash for the hashLock\r\n    function createHTLC(address payable receiver, uint256 timelock, bytes32 hashLock) external payable returns (bytes32 contractId){\r\n        require(msg.value > 0, \"Cannot lock on zero ETH\");\r\n        require(timelock > block.timestamp, \"Timelock must be in the future\");\r\n\r\n        contractId = keccak256(abi.encodePacked(msg.sender, receiver, msg.value, hashLock, timelock)); \r\n\r\n        require(contracts[contractId].amount == 0, \"Contract with this ID already exists\");\r\n\r\n        contracts[contractId] = LockContract({\r\n            amount: msg.value,\r\n            timeLock: timelock,\r\n            withdrawn: false,\r\n            refunded: false,\r\n            sender: payable(msg.sender),\r\n            receiver: receiver,\r\n            hashLock: hashLock\r\n        });\r\n\r\n        emit HTLCCreated(contractId, msg.sender, receiver, msg.value, timelock);\r\n    }\r\n\r\n    // Claim ETH after validating ZoKrates proof and the public hash\r\n    // Replaced the preImage type from bytes32 to 'string memory' to work with the interact.js script\r\n    function withdraw(bytes32 contractId, uint256[2] calldata a, uint256[2][2] calldata b, uint256[2] calldata c, uint256[5] calldata input, string memory preImage) external {\r\n\r\n        // For the ZoKrates verifier 'verifyTx' function\r\n        Verifier.Proof memory proof = Verifier.Proof({\r\n            a: Pairing.G1Point(a[0], a[1]),\r\n            b: Pairing.G2Point([b[0][0], b[0][1]], [b[1][0], b[1][1]]),\r\n            c: Pairing.G1Point(c[0], c[1])\r\n        });\r\n\r\n        LockContract storage lock = contracts[contractId];\r\n        require(lock.receiver == msg.sender, \"Only the receiver can withdraw\");\r\n        require(lock.timeLock > block.timestamp, \"Time lock expired\");\r\n        require(!lock.withdrawn && !lock.refunded, \"Already withdrawn\");\r\n        require(_verifier.verifyTx(proof, input), \"Invalid Proof\"); // Call the ZoKrates verifiyTx function to verify the proof\r\n        require(keccak256(abi.encodePacked(preImage)) == lock.hashLock, \"Invalid pre-image\"); // Must provide h = keccakHash(k), where k is the secret\r\n        //bool isValid = verifier.verifyProof(a, b, cProof, input);\r\n        //require(isValid, \"Invalid Proof\");\r\n\r\n        lock.withdrawn = true;\r\n        //lock.preImage = preImage;\r\n\r\n        uint256 amount = lock.amount;\r\n        (bool sent, ) = lock.receiver.call{value: amount}(\"\");\r\n        require(sent, \"Failed to send ETH\");\r\n\r\n        emit HTLCWithdrawn(contractId, msg.sender, amount);\r\n    }\r\n\r\n    // Refund ETH after Timelock has expired \r\n    function refund(bytes32 contractId) external {\r\n        //bytes32 hash = bytes32(HASH_VALUE);\r\n        //Lock storage lock = locks[hash];\r\n\r\n        LockContract storage lock = contracts[contractId];\r\n        require(lock.sender == msg.sender, \"Only the sender can refund\");\r\n        require(lock.timeLock <= block.timestamp, \"Time lock has not expired\");\r\n        require(!lock.withdrawn && !lock.refunded, \"Already refunded\");\r\n        //delete locks[hash];\r\n        lock.refunded = true;\r\n\r\n        uint256 amount = lock.amount;\r\n        (bool sent, ) = lock.sender.call{value: amount}(\"\");\r\n        require(sent, \"Failed to refund ETH\");\r\n\r\n        emit HTLCRefunded(contractId, msg.sender, amount);\r\n    }\r\n\r\n\r\n    // Get contract's details\r\n    function getContract(bytes32 contractId) external view returns (address sender, address receiver, uint256 amount, uint256 timelock, bool withdrawn, bool refunded, bytes32 preImage) {\r\n        LockContract storage lock = contracts[contractId];\r\n        return (lock.sender, lock.receiver, lock.amount, lock.timeLock, lock.withdrawn, lock.refunded, lock.hashLock);\r\n    }\r\n\r\n    // Check the contract's balance\r\n    function getContractBalance() external view returns (uint256) {\r\n        return address(this).balance;\r\n    }\r\n}",
  "sourcePath": "/mnt/c/Users/ASUS/Desktop/smart-contract-intro/ZK-Smart-Contract-HTLC/contracts/htlc-zk-contract.sol",
  "compiler": {
    "name": "solc",
    "version": "0.8.1+commit.df193b15.Emscripten.clang"
  },
  "schemaVersion": "3.4.16",
  "updatedAt": "2024-08-06T12:52:07.908Z",
  "networkType": "ethereum",
  "devdoc": {
    "kind": "dev",
    "methods": {},
    "version": 1
  },
  "userdoc": {
    "kind": "user",
    "methods": {},
    "version": 1
  }
}